:0300000002016892
:100100002A2A2A706179616D206E6F6F722A2A2AFD
:10011000002A2A2A706179616D206E6F6F722A2A17
:100120002A2A002064726976656E20627920426115
:1001300062616569200020616E6420737475646576
:100140006E74200020383035316D6963726F206322
:100150006F6E74726F6C65722100202020476F6F84
:1001600064206279652020007438120220740E1217
:1001700002207F029001001201EE9000C812023BA3
:1001800074011202209001111201EE9000C81202B7
:100190003B7401120220DFDC9001001201EE90019D
:1001A0009012023B74C012022090012312020490AC
:1001B00000C812023B7401120220900136120204A0
:1001C00074C0120220900144120204740F12022023
:1001D0009007D012023B740112022090015A1202C1
:1001E000049007D012023B7401120220216D7801A5
:1001F000E493600FF2120229A3C082C083D083D09F
:100200008280ED227801E4936015F2120229A3C0E6
:1002100082C08390006412023BD083D08280E722A8
:100220007800F20202297801F27902E320E7FA224B
:10023000C0E012023BD0E01470F6226382FF6383B9
:10024000FFA3758A9C758CFF758901D28C308DFD5A
:0C025000C28CC28DA3E582458370E722BA
:00000001FF
